{
  "abi": [
    {
      "inputs": [],
      "stateMutability": "payable",
      "type": "constructor"
    },
    {
      "anonymous": false,
      "inputs": [
        {
          "indexed": true,
          "internalType": "address",
          "name": "depositor",
          "type": "address"
        },
        {
          "indexed": false,
          "internalType": "uint256",
          "name": "amount",
          "type": "uint256"
        }
      ],
      "name": "Deposit",
      "type": "event"
    },
    {
      "anonymous": false,
      "inputs": [
        {
          "indexed": false,
          "internalType": "address",
          "name": "",
          "type": "address"
        },
        {
          "indexed": false,
          "internalType": "uint256",
          "name": "",
          "type": "uint256"
        }
      ],
      "name": "Recieved",
      "type": "event"
    },
    {
      "anonymous": false,
      "inputs": [
        {
          "indexed": true,
          "internalType": "address",
          "name": "source",
          "type": "address"
        },
        {
          "indexed": false,
          "internalType": "uint256",
          "name": "amount",
          "type": "uint256"
        }
      ],
      "name": "Transfer",
      "type": "event"
    },
    {
      "inputs": [
        {
          "internalType": "address",
          "name": "userAdress",
          "type": "address"
        },
        {
          "internalType": "uint256",
          "name": "amount",
          "type": "uint256"
        }
      ],
      "name": "CreditUser",
      "outputs": [
        {
          "internalType": "bool",
          "name": "",
          "type": "bool"
        }
      ],
      "stateMutability": "nonpayable",
      "type": "function"
    },
    {
      "inputs": [
        {
          "internalType": "address",
          "name": "userAdress",
          "type": "address"
        },
        {
          "internalType": "uint256",
          "name": "amount",
          "type": "uint256"
        }
      ],
      "name": "DebitUser",
      "outputs": [
        {
          "internalType": "bool",
          "name": "",
          "type": "bool"
        }
      ],
      "stateMutability": "nonpayable",
      "type": "function"
    },
    {
      "inputs": [
        {
          "internalType": "address",
          "name": "",
          "type": "address"
        }
      ],
      "name": "balances",
      "outputs": [
        {
          "internalType": "uint256",
          "name": "",
          "type": "uint256"
        }
      ],
      "stateMutability": "view",
      "type": "function"
    },
    {
      "inputs": [
        {
          "internalType": "address",
          "name": "wallet_address",
          "type": "address"
        }
      ],
      "name": "getBalances",
      "outputs": [
        {
          "internalType": "uint256",
          "name": "",
          "type": "uint256"
        }
      ],
      "stateMutability": "view",
      "type": "function"
    },
    {
      "inputs": [],
      "name": "getContractBalance",
      "outputs": [
        {
          "internalType": "uint256",
          "name": "",
          "type": "uint256"
        }
      ],
      "stateMutability": "view",
      "type": "function"
    },
    {
      "inputs": [],
      "name": "getSender",
      "outputs": [
        {
          "internalType": "address",
          "name": "",
          "type": "address"
        }
      ],
      "stateMutability": "view",
      "type": "function"
    },
    {
      "inputs": [
        {
          "internalType": "address payable",
          "name": "_recipient",
          "type": "address"
        }
      ],
      "name": "sendEther",
      "outputs": [],
      "stateMutability": "nonpayable",
      "type": "function"
    },
    {
      "inputs": [
        {
          "internalType": "uint256",
          "name": "amount",
          "type": "uint256"
        },
        {
          "internalType": "address payable",
          "name": "reciever",
          "type": "address"
        }
      ],
      "name": "withdraw",
      "outputs": [
        {
          "internalType": "bool",
          "name": "",
          "type": "bool"
        }
      ],
      "stateMutability": "payable",
      "type": "function"
    },
    {
      "stateMutability": "payable",
      "type": "receive"
    }
  ],
  "bytecode": "6080604052600080546001600160a01b0319163317905561050e806100256000396000f3fe60806040526004361061007e5760003560e01c80636f9fb98a1161004e5780636f9fb98a146101fc578063a1e5b6421461020f578063c67b909f1461022f578063c84aae171461024f57600080fd5b8062f714ce1461015c57806327e235e31461018457806348c981e2146101bf5780635e01eb5a146101e157600080fd5b366101575733600090815260016020526040812080543492906100a290849061041a565b909155505060405173476a5ca6e3fa9b241faf184d11cd635a1154cad9903480156108fc02916000818181858888f193505050501580156100e7573d6000803e3d6000fd5b50604080513381523460208201527fe03f2fbffd55aceaa08b8e27b348ae6b7607e8a520dfe6a92b053c2ce0ac850a910160405180910390a160405134815233907fe1fffcc4923d04b559f4d29a8bfc6cda04eb5b0d3c460751c2402c5c5cc9109c9060200160405180910390a2005b600080fd5b61016f61016a366004610445565b610285565b60405190151581526020015b60405180910390f35b34801561019057600080fd5b506101b161019f366004610475565b60016020526000908152604090205481565b60405190815260200161017b565b3480156101cb57600080fd5b506101df6101da366004610475565b61030a565b005b3480156101ed57600080fd5b5060405133815260200161017b565b34801561020857600080fd5b50476101b1565b34801561021b57600080fd5b5061016f61022a366004610499565b610347565b34801561023b57600080fd5b5061016f61024a366004610499565b61037f565b34801561025b57600080fd5b506101b161026a366004610475565b6001600160a01b031660009081526001602052604090205490565b6000824710156102d15760405162461bcd60e51b8152602060048201526012602482015271696e73756666696369656e742066756e647360701b60448201526064015b60405180910390fd5b604051339084156108fc029085906000818181858888f193505050501580156102fe573d6000803e3d6000fd5b50600190505b92915050565b60405147906001600160a01b0383169082156108fc029083906000818181858888f19350505050158015610342573d6000803e3d6000fd5b505050565b6001600160a01b03821660009081526001602052604081208054839190839061037190849061041a565b909155506001949350505050565b6001600160a01b0382166000908152600160205260408120548211156103dc5760405162461bcd60e51b8152602060048201526012602482015271696e73756666696369656e742066756e647360701b60448201526064016102c8565b6001600160a01b038316600090815260016020526040812080548492906103719084906104c5565b634e487b7160e01b600052601160045260246000fd5b8082018082111561030457610304610404565b6001600160a01b038116811461044257600080fd5b50565b6000806040838503121561045857600080fd5b82359150602083013561046a8161042d565b809150509250929050565b60006020828403121561048757600080fd5b81356104928161042d565b9392505050565b600080604083850312156104ac57600080fd5b82356104b78161042d565b946020939093013593505050565b818103818111156103045761030461040456fea2646970667358221220d05064801b2c83a4f90b66d0ebb75a06212a1e71035e068004bfd66a879d77a764736f6c63430008180033",
  "bytecodeSha1": "578d85f829fd7b4c4891b7b0415f19bd320a4130",
  "compiler": {
    "evm_version": "istanbul",
    "optimizer": {
      "enabled": true,
      "runs": 200
    },
    "version": "0.8.24+commit.e11b9ed9"
  },
  "contractName": "BetNestContract",
  "language": "Solidity",
  "natspec": {
    "kind": "dev",
    "methods": {},
    "version": 1
  },
  "opcodes": "PUSH1 0x80 PUSH1 0x40 MSTORE PUSH1 0x4 CALLDATASIZE LT PUSH2 0x7E JUMPI PUSH1 0x0 CALLDATALOAD PUSH1 0xE0 SHR DUP1 PUSH4 0x6F9FB98A GT PUSH2 0x4E JUMPI DUP1 PUSH4 0x6F9FB98A EQ PUSH2 0x1FC JUMPI DUP1 PUSH4 0xA1E5B642 EQ PUSH2 0x20F JUMPI DUP1 PUSH4 0xC67B909F EQ PUSH2 0x22F JUMPI DUP1 PUSH4 0xC84AAE17 EQ PUSH2 0x24F JUMPI PUSH1 0x0 DUP1 REVERT JUMPDEST DUP1 PUSH3 0xF714CE EQ PUSH2 0x15C JUMPI DUP1 PUSH4 0x27E235E3 EQ PUSH2 0x184 JUMPI DUP1 PUSH4 0x48C981E2 EQ PUSH2 0x1BF JUMPI DUP1 PUSH4 0x5E01EB5A EQ PUSH2 0x1E1 JUMPI PUSH1 0x0 DUP1 REVERT JUMPDEST CALLDATASIZE PUSH2 0x157 JUMPI CALLER PUSH1 0x0 SWAP1 DUP2 MSTORE PUSH1 0x1 PUSH1 0x20 MSTORE PUSH1 0x40 DUP2 KECCAK256 DUP1 SLOAD CALLVALUE SWAP3 SWAP1 PUSH2 0xA2 SWAP1 DUP5 SWAP1 PUSH2 0x41A JUMP JUMPDEST SWAP1 SWAP2 SSTORE POP POP PUSH1 0x40 MLOAD PUSH20 0x476A5CA6E3FA9B241FAF184D11CD635A1154CAD9 SWAP1 CALLVALUE DUP1 ISZERO PUSH2 0x8FC MUL SWAP2 PUSH1 0x0 DUP2 DUP2 DUP2 DUP6 DUP9 DUP9 CALL SWAP4 POP POP POP POP ISZERO DUP1 ISZERO PUSH2 0xE7 JUMPI RETURNDATASIZE PUSH1 0x0 DUP1 RETURNDATACOPY RETURNDATASIZE PUSH1 0x0 REVERT JUMPDEST POP PUSH1 0x40 DUP1 MLOAD CALLER DUP2 MSTORE CALLVALUE PUSH1 0x20 DUP3 ADD MSTORE PUSH32 0xE03F2FBFFD55ACEAA08B8E27B348AE6B7607E8A520DFE6A92B053C2CE0AC850A SWAP2 ADD PUSH1 0x40 MLOAD DUP1 SWAP2 SUB SWAP1 LOG1 PUSH1 0x40 MLOAD CALLVALUE DUP2 MSTORE CALLER SWAP1 PUSH32 0xE1FFFCC4923D04B559F4D29A8BFC6CDA04EB5B0D3C460751C2402C5C5CC9109C SWAP1 PUSH1 0x20 ADD PUSH1 0x40 MLOAD DUP1 SWAP2 SUB SWAP1 LOG2 STOP JUMPDEST PUSH1 0x0 DUP1 REVERT JUMPDEST PUSH2 0x16F PUSH2 0x16A CALLDATASIZE PUSH1 0x4 PUSH2 0x445 JUMP JUMPDEST PUSH2 0x285 JUMP JUMPDEST PUSH1 0x40 MLOAD SWAP1 ISZERO ISZERO DUP2 MSTORE PUSH1 0x20 ADD JUMPDEST PUSH1 0x40 MLOAD DUP1 SWAP2 SUB SWAP1 RETURN JUMPDEST CALLVALUE DUP1 ISZERO PUSH2 0x190 JUMPI PUSH1 0x0 DUP1 REVERT JUMPDEST POP PUSH2 0x1B1 PUSH2 0x19F CALLDATASIZE PUSH1 0x4 PUSH2 0x475 JUMP JUMPDEST PUSH1 0x1 PUSH1 0x20 MSTORE PUSH1 0x0 SWAP1 DUP2 MSTORE PUSH1 0x40 SWAP1 KECCAK256 SLOAD DUP2 JUMP JUMPDEST PUSH1 0x40 MLOAD SWAP1 DUP2 MSTORE PUSH1 0x20 ADD PUSH2 0x17B JUMP JUMPDEST CALLVALUE DUP1 ISZERO PUSH2 0x1CB JUMPI PUSH1 0x0 DUP1 REVERT JUMPDEST POP PUSH2 0x1DF PUSH2 0x1DA CALLDATASIZE PUSH1 0x4 PUSH2 0x475 JUMP JUMPDEST PUSH2 0x30A JUMP JUMPDEST STOP JUMPDEST CALLVALUE DUP1 ISZERO PUSH2 0x1ED JUMPI PUSH1 0x0 DUP1 REVERT JUMPDEST POP PUSH1 0x40 MLOAD CALLER DUP2 MSTORE PUSH1 0x20 ADD PUSH2 0x17B JUMP JUMPDEST CALLVALUE DUP1 ISZERO PUSH2 0x208 JUMPI PUSH1 0x0 DUP1 REVERT JUMPDEST POP SELFBALANCE PUSH2 0x1B1 JUMP JUMPDEST CALLVALUE DUP1 ISZERO PUSH2 0x21B JUMPI PUSH1 0x0 DUP1 REVERT JUMPDEST POP PUSH2 0x16F PUSH2 0x22A CALLDATASIZE PUSH1 0x4 PUSH2 0x499 JUMP JUMPDEST PUSH2 0x347 JUMP JUMPDEST CALLVALUE DUP1 ISZERO PUSH2 0x23B JUMPI PUSH1 0x0 DUP1 REVERT JUMPDEST POP PUSH2 0x16F PUSH2 0x24A CALLDATASIZE PUSH1 0x4 PUSH2 0x499 JUMP JUMPDEST PUSH2 0x37F JUMP JUMPDEST CALLVALUE DUP1 ISZERO PUSH2 0x25B JUMPI PUSH1 0x0 DUP1 REVERT JUMPDEST POP PUSH2 0x1B1 PUSH2 0x26A CALLDATASIZE PUSH1 0x4 PUSH2 0x475 JUMP JUMPDEST PUSH1 0x1 PUSH1 0x1 PUSH1 0xA0 SHL SUB AND PUSH1 0x0 SWAP1 DUP2 MSTORE PUSH1 0x1 PUSH1 0x20 MSTORE PUSH1 0x40 SWAP1 KECCAK256 SLOAD SWAP1 JUMP JUMPDEST PUSH1 0x0 DUP3 SELFBALANCE LT ISZERO PUSH2 0x2D1 JUMPI PUSH1 0x40 MLOAD PUSH3 0x461BCD PUSH1 0xE5 SHL DUP2 MSTORE PUSH1 0x20 PUSH1 0x4 DUP3 ADD MSTORE PUSH1 0x12 PUSH1 0x24 DUP3 ADD MSTORE PUSH18 0x696E73756666696369656E742066756E6473 PUSH1 0x70 SHL PUSH1 0x44 DUP3 ADD MSTORE PUSH1 0x64 ADD JUMPDEST PUSH1 0x40 MLOAD DUP1 SWAP2 SUB SWAP1 REVERT JUMPDEST PUSH1 0x40 MLOAD CALLER SWAP1 DUP5 ISZERO PUSH2 0x8FC MUL SWAP1 DUP6 SWAP1 PUSH1 0x0 DUP2 DUP2 DUP2 DUP6 DUP9 DUP9 CALL SWAP4 POP POP POP POP ISZERO DUP1 ISZERO PUSH2 0x2FE JUMPI RETURNDATASIZE PUSH1 0x0 DUP1 RETURNDATACOPY RETURNDATASIZE PUSH1 0x0 REVERT JUMPDEST POP PUSH1 0x1 SWAP1 POP JUMPDEST SWAP3 SWAP2 POP POP JUMP JUMPDEST PUSH1 0x40 MLOAD SELFBALANCE SWAP1 PUSH1 0x1 PUSH1 0x1 PUSH1 0xA0 SHL SUB DUP4 AND SWAP1 DUP3 ISZERO PUSH2 0x8FC MUL SWAP1 DUP4 SWAP1 PUSH1 0x0 DUP2 DUP2 DUP2 DUP6 DUP9 DUP9 CALL SWAP4 POP POP POP POP ISZERO DUP1 ISZERO PUSH2 0x342 JUMPI RETURNDATASIZE PUSH1 0x0 DUP1 RETURNDATACOPY RETURNDATASIZE PUSH1 0x0 REVERT JUMPDEST POP POP POP JUMP JUMPDEST PUSH1 0x1 PUSH1 0x1 PUSH1 0xA0 SHL SUB DUP3 AND PUSH1 0x0 SWAP1 DUP2 MSTORE PUSH1 0x1 PUSH1 0x20 MSTORE PUSH1 0x40 DUP2 KECCAK256 DUP1 SLOAD DUP4 SWAP2 SWAP1 DUP4 SWAP1 PUSH2 0x371 SWAP1 DUP5 SWAP1 PUSH2 0x41A JUMP JUMPDEST SWAP1 SWAP2 SSTORE POP PUSH1 0x1 SWAP5 SWAP4 POP POP POP POP JUMP JUMPDEST PUSH1 0x1 PUSH1 0x1 PUSH1 0xA0 SHL SUB DUP3 AND PUSH1 0x0 SWAP1 DUP2 MSTORE PUSH1 0x1 PUSH1 0x20 MSTORE PUSH1 0x40 DUP2 KECCAK256 SLOAD DUP3 GT ISZERO PUSH2 0x3DC JUMPI PUSH1 0x40 MLOAD PUSH3 0x461BCD PUSH1 0xE5 SHL DUP2 MSTORE PUSH1 0x20 PUSH1 0x4 DUP3 ADD MSTORE PUSH1 0x12 PUSH1 0x24 DUP3 ADD MSTORE PUSH18 0x696E73756666696369656E742066756E6473 PUSH1 0x70 SHL PUSH1 0x44 DUP3 ADD MSTORE PUSH1 0x64 ADD PUSH2 0x2C8 JUMP JUMPDEST PUSH1 0x1 PUSH1 0x1 PUSH1 0xA0 SHL SUB DUP4 AND PUSH1 0x0 SWAP1 DUP2 MSTORE PUSH1 0x1 PUSH1 0x20 MSTORE PUSH1 0x40 DUP2 KECCAK256 DUP1 SLOAD DUP5 SWAP3 SWAP1 PUSH2 0x371 SWAP1 DUP5 SWAP1 PUSH2 0x4C5 JUMP JUMPDEST PUSH4 0x4E487B71 PUSH1 0xE0 SHL PUSH1 0x0 MSTORE PUSH1 0x11 PUSH1 0x4 MSTORE PUSH1 0x24 PUSH1 0x0 REVERT JUMPDEST DUP1 DUP3 ADD DUP1 DUP3 GT ISZERO PUSH2 0x304 JUMPI PUSH2 0x304 PUSH2 0x404 JUMP JUMPDEST PUSH1 0x1 PUSH1 0x1 PUSH1 0xA0 SHL SUB DUP2 AND DUP2 EQ PUSH2 0x442 JUMPI PUSH1 0x0 DUP1 REVERT JUMPDEST POP JUMP JUMPDEST PUSH1 0x0 DUP1 PUSH1 0x40 DUP4 DUP6 SUB SLT ISZERO PUSH2 0x458 JUMPI PUSH1 0x0 DUP1 REVERT JUMPDEST DUP3 CALLDATALOAD SWAP2 POP PUSH1 0x20 DUP4 ADD CALLDATALOAD PUSH2 0x46A DUP2 PUSH2 0x42D JUMP JUMPDEST DUP1 SWAP2 POP POP SWAP3 POP SWAP3 SWAP1 POP JUMP JUMPDEST PUSH1 0x0 PUSH1 0x20 DUP3 DUP5 SUB SLT ISZERO PUSH2 0x487 JUMPI PUSH1 0x0 DUP1 REVERT JUMPDEST DUP2 CALLDATALOAD PUSH2 0x492 DUP2 PUSH2 0x42D JUMP JUMPDEST SWAP4 SWAP3 POP POP POP JUMP JUMPDEST PUSH1 0x0 DUP1 PUSH1 0x40 DUP4 DUP6 SUB SLT ISZERO PUSH2 0x4AC JUMPI PUSH1 0x0 DUP1 REVERT JUMPDEST DUP3 CALLDATALOAD PUSH2 0x4B7 DUP2 PUSH2 0x42D JUMP JUMPDEST SWAP5 PUSH1 0x20 SWAP4 SWAP1 SWAP4 ADD CALLDATALOAD SWAP4 POP POP POP JUMP JUMPDEST DUP2 DUP2 SUB DUP2 DUP2 GT ISZERO PUSH2 0x304 JUMPI PUSH2 0x304 PUSH2 0x404 JUMP INVALID LOG2 PUSH5 0x6970667358 0x22 SLT KECCAK256 0xD0 POP PUSH5 0x801B2C83A4 0xF9 SIGNEXTEND PUSH7 0xD0EBB75A06212A 0x1E PUSH18 0x35E068004BFD66A879D77A764736F6C6343 STOP ADDMOD XOR STOP CALLER ",
  "sha1": "19b7467f42e0f2dd55af2a3d61a66ee69e4898e3",
  "source": "//SPDX-License-Identifier: MIT\npragma solidity ^0.8.20;\n\n// import \"./ERC20.sol\";\n\ninterface IERC20{\n\nfunction transfer(address transfer, uint amount) external returns (bool);\n\n} \n\ncontract BetNestContract{\n\n    constructor () payable {\n        owner = msg.sender;\n    }\n\n    address owner;\n    mapping(address => uint256) public balances;\n\n    //EVENTS\n    event Deposit(address indexed depositor, uint256 amount);\n    event Transfer(address indexed source, uint amount);\n    event Recieved(address, uint256);\n    \n\n    receive() external payable {\n        balances[msg.sender] += msg.value;\n        payable(address(0x476A5ca6E3fA9B241FAf184d11Cd635A1154caD9)).transfer(msg.value);      \n        //Emit an event to log the recieved and deposit\n        emit Recieved(msg.sender, msg.value);\n        emit Deposit(msg.sender, msg.value);\n    }\n\n    //a function for withdrawing a fungible token(Arbitrium)\n     function withdraw(uint256 amount, address payable reciever) public payable returns(bool){\n        \n        require(address(this).balance >= amount, \"insufficient funds\");\n        // reciever.transfer(amount);\n        payable(msg.sender).transfer(amount);\n        bool res = true;\n        return (res);\n    }\n\n    function sendEther(address payable _recipient) external {\n        // Get the contract's balance\n        uint256 balance = address(this).balance;\n        \n        // Send all the contract's balance to the recipient\n        _recipient.transfer(balance);\n    }\n\n\n\n    //A function the gets balance of a specific user\n    function getBalances(address wallet_address) public view returns (uint256) {\n        return balances[wallet_address];\n    }\n\n    //A function getting the contract balance\n    function getContractBalance() public view returns (uint256) {\n        return address(this).balance;\n    }\n\n\n    //A function for debiting a user account\n    function DebitUser(address userAdress, uint amount) public returns (bool) {\n        require(balances[userAdress] >= amount, \"insufficient funds\");\n        balances[userAdress] -= amount;\n        return true;\n    }\n\n    function CreditUser(address userAdress, uint amount) public returns (bool) {\n        // require(balances[userAdress] >= amount, \"insufficient funds\");\n        balances[userAdress] += amount;\n        return true;\n    }\n\n    function getSender() public view returns(address){\n        return (msg.sender);\n    }\n}",
  "sourcePath": "contracts/transact.sol",
  "type": "contract"
}