{
  "abi": [
    {
      "inputs": [],
      "name": "readNumber",
      "outputs": [
        {
          "internalType": "uint256",
          "name": "",
          "type": "uint256"
        }
      ],
      "stateMutability": "view",
      "type": "function"
    }
  ],
  "bytecode": "60806040526007600055348015601457600080fd5b5060788060226000396000f3fe6080604052348015600f57600080fd5b506004361060285760003560e01c8063b63d343f14602d575b600080fd5b60005460405190815260200160405180910390f3fea2646970667358221220859d0d1b0c19f07dbcc8a8802ed490621f46d99395590aac83137a853eb73fbd64736f6c63430008180033",
  "bytecodeSha1": "39693f32a858e6769d6f09421915980326b5104d",
  "compiler": {
    "evm_version": "istanbul",
    "optimizer": {
      "enabled": true,
      "runs": 200
    },
    "version": "0.8.24+commit.e11b9ed9"
  },
  "contractName": "TestContract",
  "language": "Solidity",
  "natspec": {
    "kind": "dev",
    "methods": {},
    "version": 1
  },
  "opcodes": "PUSH1 0x80 PUSH1 0x40 MSTORE CALLVALUE DUP1 ISZERO PUSH1 0xF JUMPI PUSH1 0x0 DUP1 REVERT JUMPDEST POP PUSH1 0x4 CALLDATASIZE LT PUSH1 0x28 JUMPI PUSH1 0x0 CALLDATALOAD PUSH1 0xE0 SHR DUP1 PUSH4 0xB63D343F EQ PUSH1 0x2D JUMPI JUMPDEST PUSH1 0x0 DUP1 REVERT JUMPDEST PUSH1 0x0 SLOAD PUSH1 0x40 MLOAD SWAP1 DUP2 MSTORE PUSH1 0x20 ADD PUSH1 0x40 MLOAD DUP1 SWAP2 SUB SWAP1 RETURN INVALID LOG2 PUSH5 0x6970667358 0x22 SLT KECCAK256 DUP6 SWAP14 0xD SHL 0xC NOT CREATE PUSH30 0xBCC8A8802ED490621F46D99395590AAC83137A853EB73FBD64736F6C6343 STOP ADDMOD XOR STOP CALLER ",
  "sha1": "207dfc92171ea40f59d18575763ce777814301e5",
  "source": "//SPDX-License-Identifier: MIT\npragma solidity ^0.8.0;\n\ncontract TestContract{\n    uint256 number = 7;\n\n    function readNumber() public view returns (uint256){\n        return number;\n    }\n}",
  "sourcePath": "contracts/testit.sol",
  "type": "contract"
}