{"abi":[{"inputs":[],"stateMutability":"payable","type":"constructor","name":"constructor"},{"anonymous":false,"inputs":[{"indexed":true,"internalType":"address","name":"depositor","type":"address"},{"indexed":false,"internalType":"uint256","name":"amount","type":"uint256"}],"name":"Deposit","type":"event"},{"anonymous":false,"inputs":[{"indexed":false,"internalType":"address","name":"","type":"address"},{"indexed":false,"internalType":"uint256","name":"","type":"uint256"}],"name":"Recieved","type":"event"},{"inputs":[{"internalType":"address","name":"","type":"address"}],"name":"balances","outputs":[{"internalType":"uint256","name":"","type":"uint256"}],"stateMutability":"view","type":"function"},{"inputs":[{"internalType":"address","name":"wallet_address","type":"address"}],"name":"getBalances","outputs":[{"internalType":"uint256","name":"","type":"uint256"}],"stateMutability":"view","type":"function"},{"inputs":[],"name":"getContractBalance","outputs":[{"internalType":"uint256","name":"","type":"uint256"}],"stateMutability":"view","type":"function"},{"inputs":[],"name":"readNumber","outputs":[{"internalType":"uint256","name":"","type":"uint256"}],"stateMutability":"view","type":"function"},{"inputs":[{"internalType":"uint256","name":"amount","type":"uint256"},{"internalType":"address payable","name":"reciever","type":"address"}],"name":"withdraw","outputs":[{"internalType":"bool","name":"","type":"bool"}],"stateMutability":"payable","type":"function"},{"stateMutability":"payable","type":"receive"}],"bytecode":"608060405260076000556102e8806100186000396000f3fe60806040526004361061004d5760003560e01c8062f714ce146100ea57806327e235e3146101125780636f9fb98a1461014d578063b63d343f14610160578063c84aae171461017557600080fd5b366100e5573360009081526001602052604081208054349290610071908490610220565b9091555050604080513381523460208201527fe03f2fbffd55aceaa08b8e27b348ae6b7607e8a520dfe6a92b053c2ce0ac850a910160405180910390a160405134815233907fe1fffcc4923d04b559f4d29a8bfc6cda04eb5b0d3c460751c2402c5c5cc9109c9060200160405180910390a2005b600080fd5b6100fd6100f836600461024b565b6101ab565b60405190151581526020015b60405180910390f35b34801561011e57600080fd5b5061013f61012d36600461027b565b60016020526000908152604090205481565b604051908152602001610109565b34801561015957600080fd5b504761013f565b34801561016c57600080fd5b5060005461013f565b34801561018157600080fd5b5061013f61019036600461027b565b6001600160a01b031660009081526001602052604090205490565b6001600160a01b0381166000908152600160205260408120805484919083906101d590849061029f565b90915550506040516000906001600160a01b0384169085156108fc0290869084818181858888f1955050505050505b92915050565b634e487b7160e01b600052601160045260246000fd5b808201808211156102045761020461020a565b6001600160a01b038116811461024857600080fd5b50565b6000806040838503121561025e57600080fd5b82359150602083013561027081610233565b809150509250929050565b60006020828403121561028d57600080fd5b813561029881610233565b9392505050565b818103818111156102045761020461020a56fea2646970667358221220b6f9d0deadaabd72beda256336e047e7227e8bd866dcfb8bddcd61e6cfc5fcfc64736f6c63430008180033","bytecodeSha1":"52469b36f93d7fa1c20d3baa07604bdb934ec11a","compiler":{"evm_version":"istanbul","optimizer":{"enabled":true,"runs":200},"version":"0.8.24+commit.e11b9ed9"},"contractName":"TestContract","language":"Solidity","natspec":{"kind":"dev","methods":{},"version":1},"opcodes":"PUSH1 0x80 PUSH1 0x40 MSTORE PUSH1 0x4 CALLDATASIZE LT PUSH2 0x4D JUMPI PUSH1 0x0 CALLDATALOAD PUSH1 0xE0 SHR DUP1 PUSH3 0xF714CE EQ PUSH2 0xEA JUMPI DUP1 PUSH4 0x27E235E3 EQ PUSH2 0x112 JUMPI DUP1 PUSH4 0x6F9FB98A EQ PUSH2 0x14D JUMPI DUP1 PUSH4 0xB63D343F EQ PUSH2 0x160 JUMPI DUP1 PUSH4 0xC84AAE17 EQ PUSH2 0x175 JUMPI PUSH1 0x0 DUP1 REVERT JUMPDEST CALLDATASIZE PUSH2 0xE5 JUMPI CALLER PUSH1 0x0 SWAP1 DUP2 MSTORE PUSH1 0x1 PUSH1 0x20 MSTORE PUSH1 0x40 DUP2 KECCAK256 DUP1 SLOAD CALLVALUE SWAP3 SWAP1 PUSH2 0x71 SWAP1 DUP5 SWAP1 PUSH2 0x220 JUMP JUMPDEST SWAP1 SWAP2 SSTORE POP POP PUSH1 0x40 DUP1 MLOAD CALLER DUP2 MSTORE CALLVALUE PUSH1 0x20 DUP3 ADD MSTORE PUSH32 0xE03F2FBFFD55ACEAA08B8E27B348AE6B7607E8A520DFE6A92B053C2CE0AC850A SWAP2 ADD PUSH1 0x40 MLOAD DUP1 SWAP2 SUB SWAP1 LOG1 PUSH1 0x40 MLOAD CALLVALUE DUP2 MSTORE CALLER SWAP1 PUSH32 0xE1FFFCC4923D04B559F4D29A8BFC6CDA04EB5B0D3C460751C2402C5C5CC9109C SWAP1 PUSH1 0x20 ADD PUSH1 0x40 MLOAD DUP1 SWAP2 SUB SWAP1 LOG2 STOP JUMPDEST PUSH1 0x0 DUP1 REVERT JUMPDEST PUSH2 0xFD PUSH2 0xF8 CALLDATASIZE PUSH1 0x4 PUSH2 0x24B JUMP JUMPDEST PUSH2 0x1AB JUMP JUMPDEST PUSH1 0x40 MLOAD SWAP1 ISZERO ISZERO DUP2 MSTORE PUSH1 0x20 ADD JUMPDEST PUSH1 0x40 MLOAD DUP1 SWAP2 SUB SWAP1 RETURN JUMPDEST CALLVALUE DUP1 ISZERO PUSH2 0x11E JUMPI PUSH1 0x0 DUP1 REVERT JUMPDEST POP PUSH2 0x13F PUSH2 0x12D CALLDATASIZE PUSH1 0x4 PUSH2 0x27B JUMP JUMPDEST PUSH1 0x1 PUSH1 0x20 MSTORE PUSH1 0x0 SWAP1 DUP2 MSTORE PUSH1 0x40 SWAP1 KECCAK256 SLOAD DUP2 JUMP JUMPDEST PUSH1 0x40 MLOAD SWAP1 DUP2 MSTORE PUSH1 0x20 ADD PUSH2 0x109 JUMP JUMPDEST CALLVALUE DUP1 ISZERO PUSH2 0x159 JUMPI PUSH1 0x0 DUP1 REVERT JUMPDEST POP SELFBALANCE PUSH2 0x13F JUMP JUMPDEST CALLVALUE DUP1 ISZERO PUSH2 0x16C JUMPI PUSH1 0x0 DUP1 REVERT JUMPDEST POP PUSH1 0x0 SLOAD PUSH2 0x13F JUMP JUMPDEST CALLVALUE DUP1 ISZERO PUSH2 0x181 JUMPI PUSH1 0x0 DUP1 REVERT JUMPDEST POP PUSH2 0x13F PUSH2 0x190 CALLDATASIZE PUSH1 0x4 PUSH2 0x27B JUMP JUMPDEST PUSH1 0x1 PUSH1 0x1 PUSH1 0xA0 SHL SUB AND PUSH1 0x0 SWAP1 DUP2 MSTORE PUSH1 0x1 PUSH1 0x20 MSTORE PUSH1 0x40 SWAP1 KECCAK256 SLOAD SWAP1 JUMP JUMPDEST PUSH1 0x1 PUSH1 0x1 PUSH1 0xA0 SHL SUB DUP2 AND PUSH1 0x0 SWAP1 DUP2 MSTORE PUSH1 0x1 PUSH1 0x20 MSTORE PUSH1 0x40 DUP2 KECCAK256 DUP1 SLOAD DUP5 SWAP2 SWAP1 DUP4 SWAP1 PUSH2 0x1D5 SWAP1 DUP5 SWAP1 PUSH2 0x29F JUMP JUMPDEST SWAP1 SWAP2 SSTORE POP POP PUSH1 0x40 MLOAD PUSH1 0x0 SWAP1 PUSH1 0x1 PUSH1 0x1 PUSH1 0xA0 SHL SUB DUP5 AND SWAP1 DUP6 ISZERO PUSH2 0x8FC MUL SWAP1 DUP7 SWAP1 DUP5 DUP2 DUP2 DUP2 DUP6 DUP9 DUP9 CALL SWAP6 POP POP POP POP POP POP JUMPDEST SWAP3 SWAP2 POP POP JUMP JUMPDEST PUSH4 0x4E487B71 PUSH1 0xE0 SHL PUSH1 0x0 MSTORE PUSH1 0x11 PUSH1 0x4 MSTORE PUSH1 0x24 PUSH1 0x0 REVERT JUMPDEST DUP1 DUP3 ADD DUP1 DUP3 GT ISZERO PUSH2 0x204 JUMPI PUSH2 0x204 PUSH2 0x20A JUMP JUMPDEST PUSH1 0x1 PUSH1 0x1 PUSH1 0xA0 SHL SUB DUP2 AND DUP2 EQ PUSH2 0x248 JUMPI PUSH1 0x0 DUP1 REVERT JUMPDEST POP JUMP JUMPDEST PUSH1 0x0 DUP1 PUSH1 0x40 DUP4 DUP6 SUB SLT ISZERO PUSH2 0x25E JUMPI PUSH1 0x0 DUP1 REVERT JUMPDEST DUP3 CALLDATALOAD SWAP2 POP PUSH1 0x20 DUP4 ADD CALLDATALOAD PUSH2 0x270 DUP2 PUSH2 0x233 JUMP JUMPDEST DUP1 SWAP2 POP POP SWAP3 POP SWAP3 SWAP1 POP JUMP JUMPDEST PUSH1 0x0 PUSH1 0x20 DUP3 DUP5 SUB SLT ISZERO PUSH2 0x28D JUMPI PUSH1 0x0 DUP1 REVERT JUMPDEST DUP2 CALLDATALOAD PUSH2 0x298 DUP2 PUSH2 0x233 JUMP JUMPDEST SWAP4 SWAP3 POP POP POP JUMP JUMPDEST DUP2 DUP2 SUB DUP2 DUP2 GT ISZERO PUSH2 0x204 JUMPI PUSH2 0x204 PUSH2 0x20A JUMP INVALID LOG2 PUSH5 0x6970667358 0x22 SLT KECCAK256 0xB6 0xF9 0xD0 0xDE 0xAD 0xAA 0xBD PUSH19 0xBEDA256336E047E7227E8BD866DCFB8BDDCD61 0xE6 0xCF 0xC5 0xFC 0xFC PUSH5 0x736F6C6343 STOP ADDMOD XOR STOP CALLER ","sha1":"ff99110ca868d00f10087813dd24513cbef9f0c5","source":"//SPDX-License-Identifier: MIT\npragma solidity ^0.8.0;\n\n\n\ncontract TestContract{\n    constructor () payable {\n\n    }\n\n    uint256 number = 7;\n\n    mapping(address => uint256) public balances;\n    event Deposit(address indexed depositor, uint256 amount);\n    event Recieved(address, uint256);\n    function readNumber() public view returns (uint256){\n        return number;\n    }\n\n    receive() external payable {\n        balances[msg.sender] += msg.value;\n        \n        //Emit an event to log the recieved and deposit\n        emit Recieved(msg.sender, msg.value);\n        emit Deposit(msg.sender, msg.value);\n    }\n\n    //a function for withdrawing a fungible token(Arbitrium)\n     function withdraw(uint256 amount, address payable reciever) external payable returns(bool){\n        // require(balances[reciever] >= amount, \"insufficient funds\");\n        balances[reciever] -= uint256(amount);\n        bool res = payable(reciever).send(amount);\n        return (res);\n    }\n\n\n    //A function the gets balance of a specific user\n    function getBalances(address wallet_address) public view returns (uint256) {\n        return balances[wallet_address];\n    }\n\n    function getContractBalance() public view returns (uint256) {\n        return address(this).balance;\n    }\n}","sourcePath":"contracts/testit.sol","type":"contract","deployment":{"address":"0x77fA2B6AF853ca84285953015B68c3Ba78d26042","chainid":"421614","blockHeight":15554792}}