{"bytecode":"6080604052600080546001600160a01b0319163317905561050b806100256000396000f3fe60806040526004361061007e5760003560e01c80636f9fb98a1161004e5780636f9fb98a146101bb578063a1e5b642146101ce578063c67b909f146101ee578063c84aae171461020e57600080fd5b8062f714ce1461011b57806327e235e31461014357806348c981e21461017e5780635e01eb5a146101a057600080fd5b366101165733600090815260016020526040812080543492906100a2908490610417565b9091555050604080513381523460208201527fe03f2fbffd55aceaa08b8e27b348ae6b7607e8a520dfe6a92b053c2ce0ac850a910160405180910390a160405134815233907fe1fffcc4923d04b559f4d29a8bfc6cda04eb5b0d3c460751c2402c5c5cc9109c9060200160405180910390a2005b600080fd5b61012e610129366004610442565b610244565b60405190151581526020015b60405180910390f35b34801561014f57600080fd5b5061017061015e366004610472565b60016020526000908152604090205481565b60405190815260200161013a565b34801561018a57600080fd5b5061019e610199366004610472565b610315565b005b3480156101ac57600080fd5b5060405133815260200161013a565b3480156101c757600080fd5b5047610170565b3480156101da57600080fd5b5061012e6101e9366004610496565b610352565b3480156101fa57600080fd5b5061012e610209366004610496565b61037c565b34801561021a57600080fd5b50610170610229366004610472565b6001600160a01b031660009081526001602052604090205490565b6001600160a01b0381166000908152600160205260408120548311156102a65760405162461bcd60e51b8152602060048201526012602482015271696e73756666696369656e742066756e647360701b60448201526064015b60405180910390fd5b6040516001600160a01b0383169084156108fc029085906000818181858888f193505050501580156102dc573d6000803e3d6000fd5b506001600160a01b038216600090815260016020526040812080548592906103059084906104c2565b9091555060019150505b92915050565b60405147906001600160a01b0383169082156108fc029083906000818181858888f1935050505015801561034d573d6000803e3d6000fd5b505050565b6001600160a01b038216600090815260016020526040812080548391908390610305908490610417565b6001600160a01b0382166000908152600160205260408120548211156103d95760405162461bcd60e51b8152602060048201526012602482015271696e73756666696369656e742066756e647360701b604482015260640161029d565b6001600160a01b038316600090815260016020526040812080548492906103059084906104c2565b634e487b7160e01b600052601160045260246000fd5b8082018082111561030f5761030f610401565b6001600160a01b038116811461043f57600080fd5b50565b6000806040838503121561045557600080fd5b8235915060208301356104678161042a565b809150509250929050565b60006020828403121561048457600080fd5b813561048f8161042a565b9392505050565b600080604083850312156104a957600080fd5b82356104b48161042a565b946020939093013593505050565b8181038181111561030f5761030f61040156fea2646970667358221220fda197214f2b06006cafd4f1a224b338897baf04a9c2516ac12293b0dac3ec1564736f6c63430008180033","bytecodeSha1":"2b51fcb460b4a65f8e489d4e299321bef54351fe","type":"contract","abi":[{"inputs":[],"stateMutability":"payable","type":"constructor","name":"constructor"},{"anonymous":false,"inputs":[{"indexed":true,"internalType":"address","name":"depositor","type":"address"},{"indexed":false,"internalType":"uint256","name":"amount","type":"uint256"}],"name":"Deposit","type":"event"},{"anonymous":false,"inputs":[{"indexed":false,"internalType":"address","name":"","type":"address"},{"indexed":false,"internalType":"uint256","name":"","type":"uint256"}],"name":"Recieved","type":"event"},{"anonymous":false,"inputs":[{"indexed":true,"internalType":"address","name":"source","type":"address"},{"indexed":false,"internalType":"uint256","name":"amount","type":"uint256"}],"name":"Transfer","type":"event"},{"inputs":[{"internalType":"address","name":"userAdress","type":"address"},{"internalType":"uint256","name":"amount","type":"uint256"}],"name":"CreditUser","outputs":[{"internalType":"bool","name":"","type":"bool"}],"stateMutability":"nonpayable","type":"function"},{"inputs":[{"internalType":"address","name":"userAdress","type":"address"},{"internalType":"uint256","name":"amount","type":"uint256"}],"name":"DebitUser","outputs":[{"internalType":"bool","name":"","type":"bool"}],"stateMutability":"nonpayable","type":"function"},{"inputs":[{"internalType":"address","name":"","type":"address"}],"name":"balances","outputs":[{"internalType":"uint256","name":"","type":"uint256"}],"stateMutability":"view","type":"function"},{"inputs":[{"internalType":"address","name":"wallet_address","type":"address"}],"name":"getBalances","outputs":[{"internalType":"uint256","name":"","type":"uint256"}],"stateMutability":"view","type":"function"},{"inputs":[],"name":"getContractBalance","outputs":[{"internalType":"uint256","name":"","type":"uint256"}],"stateMutability":"view","type":"function"},{"inputs":[],"name":"getSender","outputs":[{"internalType":"address","name":"","type":"address"}],"stateMutability":"view","type":"function"},{"inputs":[{"internalType":"address payable","name":"_recipient","type":"address"}],"name":"sendEther","outputs":[],"stateMutability":"nonpayable","type":"function"},{"inputs":[{"internalType":"uint256","name":"amount","type":"uint256"},{"internalType":"address payable","name":"reciever","type":"address"}],"name":"withdraw","outputs":[{"internalType":"bool","name":"","type":"bool"}],"stateMutability":"payable","type":"function"},{"stateMutability":"payable","type":"receive"}],"compiler":{"version":"0.8.24+commit.e11b9ed9","evm_version":"istanbul","optimizer":{"enabled":true,"runs":200}},"contractName":"BetNestContract","language":"Solidity","natspec":{"methods":{},"kind":"dev","version":1},"opcodes":"PUSH1 0x80 PUSH1 0x40 MSTORE PUSH1 0x4 CALLDATASIZE LT PUSH2 0x7E JUMPI PUSH1 0x0 CALLDATALOAD PUSH1 0xE0 SHR DUP1 PUSH4 0x6F9FB98A GT PUSH2 0x4E JUMPI DUP1 PUSH4 0x6F9FB98A EQ PUSH2 0x1BB JUMPI DUP1 PUSH4 0xA1E5B642 EQ PUSH2 0x1CE JUMPI DUP1 PUSH4 0xC67B909F EQ PUSH2 0x1EE JUMPI DUP1 PUSH4 0xC84AAE17 EQ PUSH2 0x20E JUMPI PUSH1 0x0 DUP1 REVERT JUMPDEST DUP1 PUSH3 0xF714CE EQ PUSH2 0x11B JUMPI DUP1 PUSH4 0x27E235E3 EQ PUSH2 0x143 JUMPI DUP1 PUSH4 0x48C981E2 EQ PUSH2 0x17E JUMPI DUP1 PUSH4 0x5E01EB5A EQ PUSH2 0x1A0 JUMPI PUSH1 0x0 DUP1 REVERT JUMPDEST CALLDATASIZE PUSH2 0x116 JUMPI CALLER PUSH1 0x0 SWAP1 DUP2 MSTORE PUSH1 0x1 PUSH1 0x20 MSTORE PUSH1 0x40 DUP2 KECCAK256 DUP1 SLOAD CALLVALUE SWAP3 SWAP1 PUSH2 0xA2 SWAP1 DUP5 SWAP1 PUSH2 0x417 JUMP JUMPDEST SWAP1 SWAP2 SSTORE POP POP PUSH1 0x40 DUP1 MLOAD CALLER DUP2 MSTORE CALLVALUE PUSH1 0x20 DUP3 ADD MSTORE PUSH32 0xE03F2FBFFD55ACEAA08B8E27B348AE6B7607E8A520DFE6A92B053C2CE0AC850A SWAP2 ADD PUSH1 0x40 MLOAD DUP1 SWAP2 SUB SWAP1 LOG1 PUSH1 0x40 MLOAD CALLVALUE DUP2 MSTORE CALLER SWAP1 PUSH32 0xE1FFFCC4923D04B559F4D29A8BFC6CDA04EB5B0D3C460751C2402C5C5CC9109C SWAP1 PUSH1 0x20 ADD PUSH1 0x40 MLOAD DUP1 SWAP2 SUB SWAP1 LOG2 STOP JUMPDEST PUSH1 0x0 DUP1 REVERT JUMPDEST PUSH2 0x12E PUSH2 0x129 CALLDATASIZE PUSH1 0x4 PUSH2 0x442 JUMP JUMPDEST PUSH2 0x244 JUMP JUMPDEST PUSH1 0x40 MLOAD SWAP1 ISZERO ISZERO DUP2 MSTORE PUSH1 0x20 ADD JUMPDEST PUSH1 0x40 MLOAD DUP1 SWAP2 SUB SWAP1 RETURN JUMPDEST CALLVALUE DUP1 ISZERO PUSH2 0x14F JUMPI PUSH1 0x0 DUP1 REVERT JUMPDEST POP PUSH2 0x170 PUSH2 0x15E CALLDATASIZE PUSH1 0x4 PUSH2 0x472 JUMP JUMPDEST PUSH1 0x1 PUSH1 0x20 MSTORE PUSH1 0x0 SWAP1 DUP2 MSTORE PUSH1 0x40 SWAP1 KECCAK256 SLOAD DUP2 JUMP JUMPDEST PUSH1 0x40 MLOAD SWAP1 DUP2 MSTORE PUSH1 0x20 ADD PUSH2 0x13A JUMP JUMPDEST CALLVALUE DUP1 ISZERO PUSH2 0x18A JUMPI PUSH1 0x0 DUP1 REVERT JUMPDEST POP PUSH2 0x19E PUSH2 0x199 CALLDATASIZE PUSH1 0x4 PUSH2 0x472 JUMP JUMPDEST PUSH2 0x315 JUMP JUMPDEST STOP JUMPDEST CALLVALUE DUP1 ISZERO PUSH2 0x1AC JUMPI PUSH1 0x0 DUP1 REVERT JUMPDEST POP PUSH1 0x40 MLOAD CALLER DUP2 MSTORE PUSH1 0x20 ADD PUSH2 0x13A JUMP JUMPDEST CALLVALUE DUP1 ISZERO PUSH2 0x1C7 JUMPI PUSH1 0x0 DUP1 REVERT JUMPDEST POP SELFBALANCE PUSH2 0x170 JUMP JUMPDEST CALLVALUE DUP1 ISZERO PUSH2 0x1DA JUMPI PUSH1 0x0 DUP1 REVERT JUMPDEST POP PUSH2 0x12E PUSH2 0x1E9 CALLDATASIZE PUSH1 0x4 PUSH2 0x496 JUMP JUMPDEST PUSH2 0x352 JUMP JUMPDEST CALLVALUE DUP1 ISZERO PUSH2 0x1FA JUMPI PUSH1 0x0 DUP1 REVERT JUMPDEST POP PUSH2 0x12E PUSH2 0x209 CALLDATASIZE PUSH1 0x4 PUSH2 0x496 JUMP JUMPDEST PUSH2 0x37C JUMP JUMPDEST CALLVALUE DUP1 ISZERO PUSH2 0x21A JUMPI PUSH1 0x0 DUP1 REVERT JUMPDEST POP PUSH2 0x170 PUSH2 0x229 CALLDATASIZE PUSH1 0x4 PUSH2 0x472 JUMP JUMPDEST PUSH1 0x1 PUSH1 0x1 PUSH1 0xA0 SHL SUB AND PUSH1 0x0 SWAP1 DUP2 MSTORE PUSH1 0x1 PUSH1 0x20 MSTORE PUSH1 0x40 SWAP1 KECCAK256 SLOAD SWAP1 JUMP JUMPDEST PUSH1 0x1 PUSH1 0x1 PUSH1 0xA0 SHL SUB DUP2 AND PUSH1 0x0 SWAP1 DUP2 MSTORE PUSH1 0x1 PUSH1 0x20 MSTORE PUSH1 0x40 DUP2 KECCAK256 SLOAD DUP4 GT ISZERO PUSH2 0x2A6 JUMPI PUSH1 0x40 MLOAD PUSH3 0x461BCD PUSH1 0xE5 SHL DUP2 MSTORE PUSH1 0x20 PUSH1 0x4 DUP3 ADD MSTORE PUSH1 0x12 PUSH1 0x24 DUP3 ADD MSTORE PUSH18 0x696E73756666696369656E742066756E6473 PUSH1 0x70 SHL PUSH1 0x44 DUP3 ADD MSTORE PUSH1 0x64 ADD JUMPDEST PUSH1 0x40 MLOAD DUP1 SWAP2 SUB SWAP1 REVERT JUMPDEST PUSH1 0x40 MLOAD PUSH1 0x1 PUSH1 0x1 PUSH1 0xA0 SHL SUB DUP4 AND SWAP1 DUP5 ISZERO PUSH2 0x8FC MUL SWAP1 DUP6 SWAP1 PUSH1 0x0 DUP2 DUP2 DUP2 DUP6 DUP9 DUP9 CALL SWAP4 POP POP POP POP ISZERO DUP1 ISZERO PUSH2 0x2DC JUMPI RETURNDATASIZE PUSH1 0x0 DUP1 RETURNDATACOPY RETURNDATASIZE PUSH1 0x0 REVERT JUMPDEST POP PUSH1 0x1 PUSH1 0x1 PUSH1 0xA0 SHL SUB DUP3 AND PUSH1 0x0 SWAP1 DUP2 MSTORE PUSH1 0x1 PUSH1 0x20 MSTORE PUSH1 0x40 DUP2 KECCAK256 DUP1 SLOAD DUP6 SWAP3 SWAP1 PUSH2 0x305 SWAP1 DUP5 SWAP1 PUSH2 0x4C2 JUMP JUMPDEST SWAP1 SWAP2 SSTORE POP PUSH1 0x1 SWAP2 POP POP JUMPDEST SWAP3 SWAP2 POP POP JUMP JUMPDEST PUSH1 0x40 MLOAD SELFBALANCE SWAP1 PUSH1 0x1 PUSH1 0x1 PUSH1 0xA0 SHL SUB DUP4 AND SWAP1 DUP3 ISZERO PUSH2 0x8FC MUL SWAP1 DUP4 SWAP1 PUSH1 0x0 DUP2 DUP2 DUP2 DUP6 DUP9 DUP9 CALL SWAP4 POP POP POP POP ISZERO DUP1 ISZERO PUSH2 0x34D JUMPI RETURNDATASIZE PUSH1 0x0 DUP1 RETURNDATACOPY RETURNDATASIZE PUSH1 0x0 REVERT JUMPDEST POP POP POP JUMP JUMPDEST PUSH1 0x1 PUSH1 0x1 PUSH1 0xA0 SHL SUB DUP3 AND PUSH1 0x0 SWAP1 DUP2 MSTORE PUSH1 0x1 PUSH1 0x20 MSTORE PUSH1 0x40 DUP2 KECCAK256 DUP1 SLOAD DUP4 SWAP2 SWAP1 DUP4 SWAP1 PUSH2 0x305 SWAP1 DUP5 SWAP1 PUSH2 0x417 JUMP JUMPDEST PUSH1 0x1 PUSH1 0x1 PUSH1 0xA0 SHL SUB DUP3 AND PUSH1 0x0 SWAP1 DUP2 MSTORE PUSH1 0x1 PUSH1 0x20 MSTORE PUSH1 0x40 DUP2 KECCAK256 SLOAD DUP3 GT ISZERO PUSH2 0x3D9 JUMPI PUSH1 0x40 MLOAD PUSH3 0x461BCD PUSH1 0xE5 SHL DUP2 MSTORE PUSH1 0x20 PUSH1 0x4 DUP3 ADD MSTORE PUSH1 0x12 PUSH1 0x24 DUP3 ADD MSTORE PUSH18 0x696E73756666696369656E742066756E6473 PUSH1 0x70 SHL PUSH1 0x44 DUP3 ADD MSTORE PUSH1 0x64 ADD PUSH2 0x29D JUMP JUMPDEST PUSH1 0x1 PUSH1 0x1 PUSH1 0xA0 SHL SUB DUP4 AND PUSH1 0x0 SWAP1 DUP2 MSTORE PUSH1 0x1 PUSH1 0x20 MSTORE PUSH1 0x40 DUP2 KECCAK256 DUP1 SLOAD DUP5 SWAP3 SWAP1 PUSH2 0x305 SWAP1 DUP5 SWAP1 PUSH2 0x4C2 JUMP JUMPDEST PUSH4 0x4E487B71 PUSH1 0xE0 SHL PUSH1 0x0 MSTORE PUSH1 0x11 PUSH1 0x4 MSTORE PUSH1 0x24 PUSH1 0x0 REVERT JUMPDEST DUP1 DUP3 ADD DUP1 DUP3 GT ISZERO PUSH2 0x30F JUMPI PUSH2 0x30F PUSH2 0x401 JUMP JUMPDEST PUSH1 0x1 PUSH1 0x1 PUSH1 0xA0 SHL SUB DUP2 AND DUP2 EQ PUSH2 0x43F JUMPI PUSH1 0x0 DUP1 REVERT JUMPDEST POP JUMP JUMPDEST PUSH1 0x0 DUP1 PUSH1 0x40 DUP4 DUP6 SUB SLT ISZERO PUSH2 0x455 JUMPI PUSH1 0x0 DUP1 REVERT JUMPDEST DUP3 CALLDATALOAD SWAP2 POP PUSH1 0x20 DUP4 ADD CALLDATALOAD PUSH2 0x467 DUP2 PUSH2 0x42A JUMP JUMPDEST DUP1 SWAP2 POP POP SWAP3 POP SWAP3 SWAP1 POP JUMP JUMPDEST PUSH1 0x0 PUSH1 0x20 DUP3 DUP5 SUB SLT ISZERO PUSH2 0x484 JUMPI PUSH1 0x0 DUP1 REVERT JUMPDEST DUP2 CALLDATALOAD PUSH2 0x48F DUP2 PUSH2 0x42A JUMP JUMPDEST SWAP4 SWAP3 POP POP POP JUMP JUMPDEST PUSH1 0x0 DUP1 PUSH1 0x40 DUP4 DUP6 SUB SLT ISZERO PUSH2 0x4A9 JUMPI PUSH1 0x0 DUP1 REVERT JUMPDEST DUP3 CALLDATALOAD PUSH2 0x4B4 DUP2 PUSH2 0x42A JUMP JUMPDEST SWAP5 PUSH1 0x20 SWAP4 SWAP1 SWAP4 ADD CALLDATALOAD SWAP4 POP POP POP JUMP JUMPDEST DUP2 DUP2 SUB DUP2 DUP2 GT ISZERO PUSH2 0x30F JUMPI PUSH2 0x30F PUSH2 0x401 JUMP INVALID LOG2 PUSH5 0x6970667358 0x22 SLT KECCAK256 REVERT LOG1 SWAP8 0x21 0x4F 0x2B MOD STOP PUSH13 0xAFD4F1A224B338897BAF04A9C2 MLOAD PUSH11 0xC12293B0DAC3EC1564736F PUSH13 0x63430008180033000000000000 ","sha1":"f1bf1a6f197a98ad7a2083cc4da68c884a54372f","source":"//SPDX-License-Identifier: MIT\npragma solidity ^0.8.20;\n\n// import \"./ERC20.sol\";\n\ninterface IERC20{\n\nfunction transfer(address transfer, uint amount) external returns (bool);\n\n} \n\ncontract BetNestContract{\n\n    constructor () payable {\n        owner = msg.sender;\n    }\n\n    address owner;\n    mapping(address => uint256) public balances;\n\n    //EVENTS\n    event Deposit(address indexed depositor, uint256 amount);\n    event Transfer(address indexed source, uint amount);\n    event Recieved(address, uint256);\n    \n\n    receive() external payable {\n        balances[msg.sender] += msg.value;\n        \n        //Emit an event to log the recieved and deposit\n        emit Recieved(msg.sender, msg.value);\n        emit Deposit(msg.sender, msg.value);\n    }\n\n    //a function for withdrawing a fungible token(Arbitrium)\n     function withdraw(uint256 amount, address payable reciever) public payable returns(bool){\n        \n        require(balances[reciever] >= amount, \"insufficient funds\");\n        // reciever.transfer(amount);\n        payable(reciever).transfer(amount);\n        balances[reciever]-= amount;\n        bool res = true;\n        return (res);\n    }\n\n    function sendEther(address payable _recipient) external {\n        // Get the contract's balance\n        uint256 balance = address(this).balance;\n        \n        // Send all the contract's balance to the recipient\n        _recipient.transfer(balance);\n    }\n\n\n\n    //A function the gets balance of a specific user\n    function getBalances(address wallet_address) public view returns (uint256) {\n        return balances[wallet_address];\n    }\n\n    //A function getting the contract balance\n    function getContractBalance() public view returns (uint256) {\n        return address(this).balance;\n    }\n\n\n    //A function for debiting a user account\n    function DebitUser(address userAdress, uint amount) public returns (bool) {\n        require(balances[userAdress] >= amount, \"insufficient funds\");\n        balances[userAdress] -= amount;\n        return true;\n    }\n\n    function CreditUser(address userAdress, uint amount) public returns (bool) {\n        // require(balances[userAdress] >= amount, \"insufficient funds\");\n        balances[userAdress] += amount;\n        return true;\n    }\n\n    function getSender() public view returns(address){\n        return (msg.sender);\n    }\n}","sourcePath":"contracts/transact.sol","deployment":{"address":"0xAdf809a0a97e254827059449862adDEB45C1c049","chainid":"421614","blockHeight":17037700}}